:020000040800F2
:10000000005000207501000871010008710100080E
:1000100000000000000000000000000000000000E0
:100020000000000000000000000000007101000856
:1000300000000000000000007101000841000008FD
:10004000024A136801331360704700BF08000020A4
:100050003E4B73B51A683E4942F480321A60002262
:100060000192019A8A423DD91A68940341D4596891
:10007000384A0A4042F4601242F414525A601A6834
:1000800042F080721A601A689001FCD55A6822F01A
:10009000030242F002025A605A6802F00C02082A77
:1000A000FAD19A69002442F015029A614FF0E023D8
:1000B000294A2A4E5A6107229C611A6100F053F9BD
:1000C0002046274900F042F9264D274C0D223146A3
:1000D000002000F027F92B6803442B6023680133CC
:1000E0002360F3E71A689503BED4019A01320192A6
:1000F000B7E712211D4A11605A6822F003025A60C4
:100100005A6812F00C0FFBD11A6822F080721A6044
:100110001A689101FCD459680E4A0A4042F424122C
:1001200042F414525A601A6842F080721A601A68D7
:100130009201FCD55A6822F0030242F002025A6092
:100140005A6802F00C02082AFAD1AAE7001002400D
:100150003F0D0300F0C0C0FFFF760100F30300086D
:10016000A603000800000020040000200020024038
:10017000FEE7000008B50E4B0E48DA1C121AC11E2D
:1001800022F00302994288BF00220B4900F0EDF8EB
:100190000A4B0B48DA1C121AC11E22F003029942C4
:1001A00088BF0022002100F0EEF8FFF751FFFEE7C4
:1001B00000000020000000201C0400086C3100201A
:1001C000000000200369C26893429CBF80681B182E
:1001D000013B981A70472DE9F843D0E9029405468F
:1001E000A9EB04084068904520440F46144404D904
:1001F00000F0BBF8EC60BDE8F8834246A4EB0904CC
:1002000000F0B3F82246686807EB0801F0E72DE933
:10021000F8430646894617464FF00008C56834691A
:10022000B368A54228BFE418013C621B5C1BBC42BA
:1002300028BF3C46944228BF14467068494628446B
:10024000224600F092F8B3682544AB4208BF00256F
:100250003F1BA044A144F560E1D14046BDE8F883CE
:1002600008B5134B48220021184600F08CF80221F3
:1002700001220346016142610E480F4A9861DA612A
:100280004FF440521A6200229A625A62D96298640C
:100290000A48D8644FF4807018659A655A65D96524
:1002A000074911F8010998540132102AF9D108BD03
:1002B0000C000020010400086C0100206C000020EC
:1002C0001904000870B5182400FB0445144B1646A9
:1002D0001D4404FB0033DC6A012C0ED0022C18D024
:1002E000E4B92846FFF76EFF864204D83246284616
:1002F000FFF771FF3446204670BD2846FFF762FFC6
:100300008642344628BF044628462246FFF763FF4C
:10031000F1E72846BDE87040FFF779BF0024EAE71F
:100320000C00002070B5084B04461B780D46532B7B
:10033000164601D0FFF794FF324629462046BDE815
:100340007040FFF7BFBF00BF0C00002038B5054666
:1003500008460C4600F01FF8214602462846BDE834
:100360003840FFF7DFBFFFF77BBF0A44914200F13F
:10037000FF3300D1704710B511F8014B914203F8DB
:10038000014FF9D110BD03460244934200D170479A
:1003900003F8011BF9E7034613F8012B002AFBD1F0
:1003A000181A013870470D0A3D3D3D205254542023
:1003B000E5909EE59090E6B58BE8AF95EFBC9A424C
:1003C0004C4F434B5F49465F4649464F5F46554C4D
:1003D0004CEFBC8CE6ADBBE5BEAAE78EAFE58F91D6
:1003E0002068656C6C6F20776F726C64203D3D3DBA
:1003F0000D0A0068656C6C6F20776F726C64210A5F
:10040000005465726D696E616C00000000000000B0
:0C04100054545220524547474553000009
:040000050800017579
:00000001FF
